S01500005761766547656E657261746F722E73726563D5
S11300000C942A000C9447000C9447000C9447006D
S11300100C9447000C9447000C9447000C94470040
S11300200C9447000C9447000C9447000C94520025
S11300300C9447000C948E000C9447000C944700D9
S11300400C9447000C9447000C9447000C947601E0
S11300500C94470011241FBECFE5D4E0DEBFCDBF12
S113006010E0A0E6B0E0E6E8F5E002C005900D92ED
S1130070AC38B107D9F720E0ACE8B0E001C01D927C
S1130080AE3AB207E1F70E9449000C94C1020C9405
S113009000008FEF87BB81BB0E94CA0178940E9445
S11300A00702FDCF1F920F920FB60F9211242F93C8
S11300B04F935F938F939F93EF93FF93F8942CB197
S11300C040918C0050918D0080918E0090918F0012
S11300D048175907B0F42032A1F080918C00909118
S11300E08D00E0919000F0919100E80FF91F2083BA
S11300F080918C0090918D00019690938D00809357
S11301008C007894FF91EF919F918F915F914F9123
S11301102F910F900FBE0F901F9018951F920F9262
S11301200FB60F9211242F933F938F939F93EF93C6
S1130130FF93F8948091920090919300019690938C
S113014093008093920020919200309193008091CB
S11301509400909195002817390760F480919200DB
S113016090919300E0919600F0919700E80FF91FA9
S113017080818CB97894FF91EF919F918F913F91F9
S11301802F910F900FBE0F901F901895FC01808146
S113019080BD818189B982818BB983818AB9848147
S11301A080BD089590939700809396007093950076
S11301B06093940010929300109292005D9BFECF86
S11301C0FC0180818CB908959093910080939000F4
S11301D070938F0060938E0010928D0010928C00AB
S11301E00895409192005091930020919400309191
S11301F0950081E04217530708F480E00895409188
S11302008C0050918D0020918E0030918F0081E000
S11302104217530708F480E008958FEF87BBE7EE99
S1130220F3E03197F1F700C0000018BAEFE7FEE3FE
S11302303197F1F700C0000088BB8FE79EE3019778
S1130240F1F700C0000008958FEF87BBE7EEF3E0FD
S11302503197F1F700C0000018BAE7EBFBE03197E3
S1130260F1F700C0000093E398BBE7EBFBE03197A4
S1130270F1F700C0000096E698BBE7EBFBE031978E
S1130280F1F700C0000099E998BBE7EBFBE0319778
S1130290F1F700C000009CEC98BBE7EBFBE0319762
S11302A0F1F700C0000088BB87EB9BE00197F1F7F2
S11302B000C00000089580E088BBEFE3F6E03197CA
S11302C0F1F700C000008F5F8F3FB1F7EFECF7E06C
S11302D03197F1F700C0000088BBEFE3F6E03197F7
S11302E0F1F700C000008150B9F708951F920F92F2
S11302F00FB60F9211248F939F93EF93FF93E09186
S11303009800F0919900EE0FFF1FE05AFF4F808193
S1130310982F990F990F890F815883BD8091980068
S11303209091990001968431910529F09093990058
S11303308093980004C01092990010929800FF9145
S1130340EF919F918F910F900FBE0F901F90189572
S11303508F9A13BC88E485BD85B5806285BD85B55B
S1130360816085BD0895789489B7826089BF82E3EE
S11303708CBF8AE083BF08950E94A8010E94B30144
S11303802FEF84E39CE0215080409040E1F700C0CF
S113039000000895CF93DF9300D000D01F92CDB713
S11303A0DEB783E38A8319821B8288ED8C8386E817
S11303B08D83CE0101960E94C600E5EAF0E0119219
S11303C080E0EE3AF807D9F78DE091E090939E0033
S11303D080939D0084E291E09093A00080939F001D
S11303E08BE591E09093A2008093A1008CEB91E0C7
S11303F09093A4008093A30081E080939C000F90CD
S11304000F900F900F900F90DF91CF9108951F934D
S1130410CF93DF9300D01F92CDB7DEB780919C00BD
S1130420882309F45EC0813009F07EC061E070E089
S11304308AE890E00E94D2000E94F1008823E1F350
S113044069E070E085EA90E00E94E4000E94FF0009
S11304508823E1F38091A500803441F58091AD00BB
S11304608B3321F58091A70089838091A8008A832A
S11304708091A9008B83CE0101960E949B028093F8
S11304809B008091AA0089838091AB008A8380912C
S1130490AC008B83CE0101960E949B0280939A004C
S11304A08091A60080538093880007C0E5EAF0E0BD
S11304B0119280E0EE3AF807D9F769E070E085EA36
S11304C090E00E94E40062E070E089E890E00E941D
S11304D0D2000E94F1008823E1F38FEF8ABB84E00D
S11304E08BBB1FEF1ABB88E08BBBE0918800E43024
S11304F080F4F0E0EE0FFF1FE356FF4F0190F08110
S1130500E02D60919A0080919B0009951ABB81E0CF
S113051002C01ABB82E08BBB0E94FF0091E08130D5
S113052009F090E090939C000F900F900F90DF9152
S1130530CF911F910895FC0188279927E894219170
S11305402032E9F3293010F02E30C8F32B3241F079
S11305502D3239F4689404C00E94B902820F911DAF
S1130560219120532A30C0F31EF4909581959F4F1A
S113057008957AE0979F902D879F802D910D1124E7
S10905800895F894FFCF7A
S1130586000003000600080009000A00090008002C
S1130596060003000000FDFFFAFFF8FFF7FFF6FF71
S10F05A6F7FFF8FFFAFFFDFF040D3E0014
S9030000FC
