:100000000C9439000C9456000C9456000C94560035
:100010000C9456000C9456000C9456000C94560008
:100020000C9456000C9456000C9456000C946000EE
:100030000C9456000C949E000C9456000C945600A0
:100040000C9456000C9456000C9456000C945600D8
:100050000C94560005A84CCDB2D44EB93836A9023E
:100060000C50B9918688083CA6AAAA2ABE000000B6
:10007000803F11241FBECFE5D4E0DEBFCDBF10E02E
:10008000A0E6B0E0EEE9F9E002C005900D92A436DA
:10009000B107D9F720E0A4E6B0E001C01D92A43872
:1000A000B207E1F70E9458000C94CD040C940000B4
:1000B0008FEF87BB0E94AF0178940E94E701FDCFCC
:1000C0001F920F920FB60F9211242F933F934F93CD
:1000D0005F938F939F93EF93FF93F8948CB140912C
:1000E00064005091650020916600309167004217CE
:1000F0005307B0F48032A1F0209164003091650084
:10010000E0916800F0916900E20FF31F8083809115
:10011000640090916500019690936500809364005F
:100120007894FF91EF919F918F915F914F913F91C3
:100130002F910F900FBE0F901F9018951F920F9246
:100140000FB60F9211242F933F938F939F93EF93AA
:10015000FF93F89480916A0090916B0001969093C0
:100160006B0080936A0020916A0030916B0080914F
:100170006C0090916D002817390760F480916A0037
:1001800090916B00E0916E00F0916F00E80FF91F05
:1001900080818CB97894FF91EF919F918F913F91DD
:1001A0002F910F900FBE0F901F901895FC0180812A
:1001B00080BD818189B982818BB983818AB984812B
:1001C00080BD089590936F0080936E0070936D00D2
:1001D00060936C0010926B0010926A005D9BFECFE2
:1001E000FC0180818CB90895909369008093680028
:1001F000709367006093660010926500109264002F
:10020000089540916A0050916B0020916C003091EC
:100210006D0081E04217530708F480E00895409193
:10022000640050916500209166003091670081E084
:100230004217530708F480E008958FEF87BBE7EE7D
:10024000F3E03197F1F700C0000018BAEFE7FEE3E2
:100250003197F1F700C0000088BB8FE79EE301975C
:10026000F1F700C0000008958FEF87BBE7EEF3E0E1
:100270003197F1F700C0000018BAE7EBFBE03197C7
:10028000F1F700C0000093E398BBE7EBFBE0319788
:10029000F1F700C0000096E698BBE7EBFBE0319772
:1002A000F1F700C0000099E998BBE7EBFBE031975C
:1002B000F1F700C000009CEC98BBE7EBFBE0319746
:1002C000F1F700C0000088BB87EB9BE00197F1F7D6
:1002D00000C00000089580E088BBEFE3F6E03197AE
:1002E000F1F700C000008F5F8F3FB1F7EFECF7E050
:1002F0003197F1F700C0000088BBEFE3F6E03197DB
:10030000F1F700C000008150B9F70895CF93DF9353
:100310008FEF87BBC0E0D0E0BE010D2E000C880B34
:10032000990B0E941E030E94170420E030E040EA6F
:1003300050E40E94AA0320E030E040EA50E40E942A
:1003400081020E94ED0268BB8AE18A95F1F700C044
:100350002196C436D10501F7DF91CF910895CF934F
:10036000DF9300D000D01F92CDB7DEB783E38A833E
:1003700019821B8288ED8C8386E88D83CE010196DD
:100380000E94D600EBE7F0E084E890E01192E817D5
:10039000F907E1F7E3E7F0E08DE191E091838083F5
:1003A00084E391E0938382838BE691E09583848359
:1003B00086E891E09783868381E0809372000F90B6
:1003C0000F900F900F900F90DF91CF9108950F93A2
:1003D0001F93CF93DF9300D01F92CDB7DEB78091EC
:1003E0007200882309F45EC0813009F081C061E0A9
:1003F00070E082E690E00E94E2000E940101882302
:10040000E1F369E070E08BE790E00E94F4000E9465
:100410000F018823E1F380917B00803421F48091E7
:1004200083008B3329F0EBE7F0E084E890E022C012
:100430000BE710E0F8018281898383818A838481BC
:100440008B83CE0101960E94A70480937100F8016E
:100450008581898386818A8387818B83CE010196FA
:100460000E94A70480937000F801818180538093DB
:10047000600004C01192E817F907E1F769E070E045
:100480008BE790E00E94F40062E070E081E690E08B
:100490000E94E2000E9401018823E1F38FEF8ABBF2
:1004A00084E08BBB8FEF8ABB88E08BBBE091600060
:1004B000E43090F4F0E0EE0FFF1FED58FF4F019095
:1004C000F081E02D609170008091710009958FEFAF
:1004D0008ABB81E08BBB04C08FEF8ABB82E08BBB01
:1004E0000E940F0191E0813009F090E0909372003A
:1004F0000F900F900F90DF91CF911F910F91089562
:100500005058BB27AA270E9498020C9470030E949F
:10051000620338F00E94690320F039F49F3F19F418
:1005200026F40C945F030EF4E095E7FB0C9459035A
:10053000E92F0E94810358F3BA17620773078407F3
:10054000950720F079F4A6F50C94A3030EF4E0953A
:100550000B2EBA2FA02D0B01B90190010C01CA017D
:10056000A0011124FF27591B99F0593F50F4503E28
:1005700068F11A16F040A22F232F342F4427585F1A
:10058000F3CF469537952795A795F0405395C9F732
:100590007EF41F16BA0B620B730B840BBAF09150EA
:1005A000A1F0FF0FBB1F661F771F881FC2F70EC089
:1005B000BA0F621F731F841F48F48795779567955C
:1005C000B795F7959E3F08F0B0CF9395880F08F048
:1005D0009927EE0F9795879508950E94890388F0D3
:1005E0009F5798F0B92F9927B751B0F0E1F0660FF7
:1005F000771F881F991F1AF0BA95C9F714C0B13038
:1006000091F00E94A303B1E008950C94A303672F17
:10061000782F8827B85F39F0B93FCCF38695779566
:100620006795B395D9F73EF490958095709561954F
:100630007F4F8F4F9F4F0895E89409C097FB3EF47A
:1006400090958095709561957F4F8F4F9F4F99231F
:10065000A9F0F92F96E9BB279395F695879577959D
:100660006795B795F111F8CFFAF4BB0F11F460FF5D
:100670001BC06F5F7F4F8F4F9F4F16C0882311F0B5
:1006800096E911C0772321F09EE8872F762F05C0C9
:10069000662371F096E8862F70E060E02AF09A9564
:1006A000660F771F881FDAF7880F9695879597F959
:1006B000089597F99F6780E870E060E008959FEFE4
:1006C00080EC089500240A941616170618060906E9
:1006D000089500240A9412161306140605060895B8
:1006E000092E0394000C11F4882352F0BB0F40F440
:1006F000BF2B11F460FF04C06F5F7F4F8F4F9F4F80
:10070000089557FD9058440F551F59F05F3F71F001
:100710004795880F97FB991F61F09F3F79F0879568
:100720000895121613061406551FF2CF4695F1DFF1
:1007300008C0161617061806991FF1CF8695710581
:10074000610508940895E894BB2766277727CB01B5
:1007500097F908950E94BD030C9470030E946203F0
:1007600038F00E94690320F0952311F00C9459038E
:100770000C945F0311240C94A4030E94810370F372
:10078000959FC1F3950F50E0551F629FF001729F36
:10079000BB27F00DB11D639FAA27F00DB11DAA1F45
:1007A000649F6627B00DA11D661F829F2227B00D92
:1007B000A11D621F739FB00DA11D621F839FA00D1D
:1007C000611D221F749F3327A00D611D231F849F6D
:1007D000600D211D822F762F6A2F11249F575040C4
:1007E0009AF0F1F088234AF0EE0FFF1FBB1F661F3F
:1007F000771F881F91505040A9F79E3F510580F008
:100800000C9459030C94A4035F3FE4F3983ED4F393
:10081000869577956795B795F795E7959F5FC1F7AB
:10082000FE2B880F911D9695879597F908959F93B4
:100830000E9421040F9007FCEE5F0C944A040C9474
:100840005F030E948903D8F3E894E0E0BB279F5739
:10085000F0F02AED3FE049EC06C0EE0FBB0F661F3B
:10086000771F881F28F0B23A62077307840728F0C1
:10087000B25A620B730B840BE3959A9572F780382A
:1008800030F49A95BB0F661F771F881FD2F79048E8
:100890000C946004EF93E0FF07C0A2EA2AED3FE06A
:1008A00049EC5FEB0E9498020E9470030F90039442
:1008B00001FC9058E4E5F0E00C946C049F3F31F0AB
:1008C000915020F4879577956795B795880F911D7E
:1008D0009695879597F908959F938F937F936F933C
:1008E000FF93EF939B01AC010E94AA03EF91FF914C
:1008F0000E9480042F913F914F915F910C94AA0325
:10090000DF93CF931F930F93FF92EF92DF927B01C0
:100910008C01689406C0DA2EEF010E94BD03FE012F
:10092000E894A5912591359145915591A6F3EF0154
:100930000E949802FE019701A801DA9469F7DF90FE
:10094000EF90FF900F911F91CF91DF910895FC01DF
:1009500088279927E89421912032E9F3293010F073
:100960002E30C8F32B3241F02D3239F4689404C094
:100970000E94C504820F911D219120532A30C0F39B
:100980001EF4909581959F4F08957AE0979F902D42
:0E099000879F802D910D11240895F894FFCFBC
:04099E00040D3E0006
:00000001FF
